:1000000019C033C032C031C030C02FC02EC02DC087
:100010002CC02BC02AC029C028C027C026C025C09C
:1000200024C023C022C021C020C01FC01EC01DC0CC
:10003000C4C21BC011241FBECFEFD2E0DEBFCDBFB4
:1000400011E0A0E0B1E0EAEAF6E002C005900D920E
:10005000A431B107D9F711E0A4E1B1E001C01D92CC
:10006000AA39B107E1F7F1D11EC3CACF81E080936D
:100070001B0110921D0110921C0182E180931E0150
:1000800080EC80931F0180EF80932001109221016A
:10009000E8E8F1E0119281E0EA39F807D9F708952C
:1000A0008FE384B98FE087B98FEF8AB90895E1E8CB
:1000B000F0E080818360808380818860808387E82E
:1000C00093E190938900809388000895AF92BF9246
:1000D000CF92DF92FF920F931F93CF93DF936B0129
:1000E00090E0FC01E050FF4F2081A8E8AA2EA1E09B
:1000F000BA2EA80EB91EF501608186E0689FD00176
:100100001124A45EBE4F8D919C9111978C159D0575
:1001100051F4DF91CF911F910F91FF90DF90CF901D
:10012000BF90AF900895283008F085C081E090E03E
:1001300002C0880F991F2A95E2F7F82E00E010E020
:1001400012968C911297815012968C931297882355
:1001500009F482C013968C9113978F2913968C9370
:10016000139714968C911497802B14968C93149754
:1001700015968C911597812B15968C9380911C0167
:1001800090911D018C159D0508F4B0C070E040E011
:1001900050E0ACE1B1E08D919C9111978C159D05DB
:1001A00009F4BDC060911B01262F30E042175307B0
:1001B00004F5C901880F991F820F931F880F991F9B
:1001C000845E9E4F9A01220F331F240F351F220F8A
:1001D000331F245E3E4FAC0146505040EC01FA0103
:1001E00086E0019009928150E1F7CA014217530756
:1001F00091F76F5F60931B01E8E8F1E0808187175A
:1002000010F08F5F8083319681E0EA39F807B1F70B
:100210001196DC92CE9281E012968C931297F09414
:100220001396FC921397009514960C9314971095BF
:1002300015961C9395C0203108F04AC030E0285034
:10024000304081E090E002C0880F991F2A95E2F7C4
:10025000082FFF2410E074CF80911B018150809300
:100260001B01262F30E0482F50E0241735071CF5DE
:10027000C90101969C01220F331F280F391F220F3D
:10028000331F245E3E4FCA010196AC01440F551F37
:10029000480F591F440F551F445E5E4FD9011697F2
:1002A000F90186E001900D928150E1F72A5F3F4FFE
:1002B0002417350799F7E8E8F1E08081861710F0F8
:1002C00081508083319681E0EA39F807B1F756CF43
:1002D00030E02051304081E090E002C0880F991F4B
:1002E0002A95E2F7182FFF2400E02ACF20911B0166
:1002F000222309F44BCF70E07F5F472F50E0FA01D3
:10030000EE0FFF1FE40FF51FEE0FFF1FE45EFE4F21
:10031000808191818C159D0530F1DF013CCF1296D3
:100320008C911297882309F43DCF8F5F12968C939E
:100330001297F09413968C9113978F2113968C93A8
:100340001397009514968C911497802314968C9390
:100350001497109515968C911597812315968C936B
:10036000F5017083D6CE721738F2D7CF60911B019A
:1003700080911C0190911D01892B09F43FC02FE34E
:100380009FE03FEF4CE151E0F89485B1282B25B96F
:1003900088B1982B98B98BB1382B3BB9A0918400C8
:1003A000B09185001092850010928400662391F12F
:1003B0006150FA0186E0689FA00111244E0F5F1F73
:1003C0002081318136952795369527958091840037
:1003D0009091850082179307C8F385B19381892393
:1003E00085B988B19481892388B98BB19581892396
:1003F0008BB9E417F50771F03696E2CF20911F0113
:100400002F73909120019F7030912101615042E241
:1004100051E0BACF80918400909185008A0F9B1F94
:10042000909385008093840078940895FC01308136
:1004300021818281323108F00895722F60E090E0CE
:10044000682B792B832F42DEF7CFFF920F931F93F8
:10045000DF93CF9300D000D0CDB7DEB781E080939B
:100460001B0110921D0110921C0182E180931E015C
:1004700080EC80931F0180EF809320011092210176
:10048000E8E8F1E0119281E0EA39F807D9F78FE363
:1004900084B98FE087B98FEF8AB98091810083603A
:1004A000809381008091810088608093810087E83B
:1004B00093E190938900809388008EE819D04CD006
:1004C00078948E010F5F1F4F92E0F92E1AD0882387
:1004D00051F48091140181FF06C0C80164E049D045
:1004E000C801A4DF39D0B19BF1CF40DFF6BAEECF1F
:1004F0008093BA008FEF8093BB0084E08093BC00B0
:1005000008958091BC00817008958091BC0080FDA9
:10051000FCCF809112010895AC018091BC0080FD58
:10052000FCCF60931501662371F020E030E0F90103
:10053000E95EFE4FDA01A20FB31F8C9180832F5F1B
:100540003F4F2617A0F31092140188EF80931201F9
:1005500085EC8093BC0008958091BC0080FDFCCFA9
:100560001092140188EF8093120185EC8093BC00F7
:100570000895AC018091BC0080FDFCCF2091140156
:1005800020FF19C0662381F020E030E0FA01E20F7D
:10059000F31FD901A95EBE4F8C9180832F5F3F4F1F
:1005A0002617A0F320911401822F8D7F80931401D0
:1005B000822F8170089580E008951F920F920FB6E8
:1005C0000F9211248F939F93EF93FF938091B90023
:1005D0008039E9F4809116019091BB00E82FF0E09A
:1005E000E95EFE4F90838F5F809316018091140126
:1005F00081608093140185EC8093BC00FF91EF91A2
:100600009F918F910F900FBE0F901F901895813979
:10061000A0F0883A01F51092160190911601E92F89
:10062000F0E0E95EFE4F80818093BB009F5F909376
:10063000160185EC8093BC00E1CF803739F58091BD
:10064000140184608260809314011092160185EC7D
:100650008093BC00D3CF893A98F0883BF1F2803C7C
:1006600089F490911601809115019817B9F4809141
:10067000140181608093140184E08093BC00BECF9C
:10068000803AD1F385ED8093BC00B8CF803809F46F
:10069000A1CF8036B9F780911401D4CF8091B900F1
:0A06A00080931201E9CFF894FFCF18
:1006AA00131415161700010203040508090A0B1092
:0406BA001112F80021
:00000001FF
