:1000000019C033C032C031C030C02FC02EC02DC087
:100010002CC02BC02AC029C028C027C026C025C09C
:1000200024C023C022C021C020C01FC01EC01DC0CC
:1000300017C31BC011241FBECFEFD2E0DEBFCDBF60
:1000400011E0A0E0B1E0E2E9F7E002C005900D9216
:10005000A431B107D9F721E0A4E1B1E001C01D92BC
:10006000AC3AB207E1F726D292C3CACF81E08093BF
:100070002B0110922D0110922C0182E180932E0110
:1000800080EC80932F0180EF80933001109231013A
:10009000EAE9F1E0119281E0EC3AF807D9F7089526
:1000A0008FE384B98FE087B98FEF8AB90895E1E8CB
:1000B000F0E080818360808380818860808387E82E
:1000C00093E190938900809388000895AF92BF9246
:1000D000CF92DF92EF92FF920F931F93CF93DF9314
:1000E000482F50E0FA01E050FF4F208146565E4F06
:1000F000DA01DC91AD2FB0E0CD01880F991FFC0132
:10010000EA0FFB1FEE0FFF1FE45DFE4F0190F08131
:10011000E02DE617F70759F4DF91CF911F910F916A
:10012000FF90EF90DF90CF90BF90AF900895283070
:1001300008F07AC0C1E001C0CC0F2A95EAF720E0B0
:1001400030E0FC01EA0FFB1FEE0FFF1FE45DFE4FE6
:10015000828181508283882309F471C083818C2B32
:1001600083838481832B84838581822B8583A091E3
:100170002C01B0912D01A617B70708F49AC000E032
:1001800010E0D0E06A177B0709F4AEC0D0902B01D5
:10019000C801880F991FED2DF0E00E171F0704F519
:1001A000A6E0DA9EF0011124DF01AA5DBE4F7D01B9
:1001B000FC01E00FF11FEE0FFF1FDF01AA5DBE4F34
:1001C0005D01E6E0CE2EF701D701169601900D9263
:1001D000CA94E1F7B6E0EB1AF108EA14FB0489F7D8
:1001E000D394D0922B01EAE9F1E0BCEAEB2EB1E026
:1001F000FB2EA081AD1710F0AF5FA0833196EE16F5
:10020000FF06B9F7FC01E00FF11FEE0FFF1FE45DE1
:10021000FE4F7183608381E08283C095C3833095F4
:100220003483209525837BC02031C8F5285031E0E8
:1002300001C0330F2A95EAF720E0C0E082CF809119
:100240002B01815080932B01E82FF0E0AE17BF0700
:10025000CCF496E0D99F80011124045D1E4F899F44
:10026000C0011124845D9E4FB6E0FB2EF801369646
:10027000D80101900D92FA94E1F70A5F1F4F081719
:10028000190791F7EAE9F1E080818D1710F08150AC
:1002900080833196B1E0EC3AFB07B1F768CF20518B
:1002A00031E001C0330F2A95EAF7232F30E0C0E098
:1002B00048CFD0902B01DD20A9F1E2E3F1E08FEFF0
:1002C0008D0D90E00296A1E0B0E0DA2F8D01A081C3
:1002D000B181A617B70708F055CFD8011196369609
:1002E000A817B90791F754CFC801880F991FFC01CF
:1002F000E00FF11FEE0FFF1FE45DFE4FA281AA2366
:10030000B9F0AF5FA283C09583818C23838330953E
:100310008481832384832095858182238583FA01C8
:10032000D083FACED0E000E010E080E090E058CF3B
:10033000D0902B0130CF20912B0180912C019091F6
:100340002D01892B09F049C090912F019F73809155
:1003500030018F70309131012150E2E3F1E0F894E7
:1003600045B1942B95B998B1892B88B98BB1382BAD
:100370003BB9409184005091850010928500109205
:1003800084008FEF820F2223E1F0208131813695A6
:1003900027953695279560918400709185006217A6
:1003A0007307C8F395B12381922395B998B124813D
:1003B000922398B99BB1258192239BB9369681509F
:1003C00020F78091840090918500840F951F909371
:1003D00085008093840078940895ECE2F1E03FEF8B
:1003E0008FE09FE3BCCFEAE7F0E080818B7F8083E2
:1003F0008081826080838081816080838081806849
:10040000808386EC80937C0080818064808310925E
:100410002A011092290110929901109298010895D1
:1004200080917A0086FF02C080E0089520917800D4
:100430009091790080911201863089F420932901EE
:1004400090932A0187E08093120187EC80937C00CF
:1004500080917A00806480937A0081E008958730EB
:1004600049F4209398019093990186E080931201BA
:1004700086ECECCF8770806CE9CFD2DF8823E9F37C
:100480000895FC0161817281762767277627808134
:100490001DCEFC01A8E9B1E08C91808311968C916E
:1004A0008183A9E2B1E08C91828311968C91838340
:1004B00084E00895CF93DF93CDB7DEB760970FB692
:1004C000F894DEBF0FBECDBF81E080932B01109268
:1004D0002D0110922C0182E180932E0180EC8093FB
:1004E0002F0180EF8093300110923101EAE9F1E0B1
:1004F0008CEA91E011928E179F07E1F78FE384B9A0
:100500008FE087B98FEF8AB98091810083608093F3
:1005100081008091810088608093810087E893E169
:1005200090938900809388008EE832D065D05BDF9D
:1005300077DF8823E9F374DF8823E9F3789412E006
:100540006FDF2ED081111FC08091140181FF0BC07D
:1005500068E0CE01099661D06A857B85762767279A
:1005600076278985B3DD80919801898380919901EF
:100570008A83809129018B8380912A018C8364E096
:10058000CE01019617D0B19BDBCFD5DE16BBD8CFFD
:100590008093BA0084E08093BC0010921701089504
:1005A000809117010895809117018111FCCF8091EE
:1005B00013010895209117012111FCCF60931801B8
:1005C000662371F0FC01A9E1B1E08FEF860F90E0A6
:1005D00001968E0F9F1F21912D93E817F907D9F7E8
:1005E0001092140188EF8093130185EC8093BC0076
:1005F00081E0809317010895809117018111FCCF4C
:10060000109218011092140188EF8093130185EC69
:100610008093BC00109217010895209117012111B9
:10062000FCCF2091140120FF15C06930B0F068E0C4
:10063000A1E2B1E0FC018FEF860F90E08E5D9E4F4E
:100640002D912193A817B907D9F7209114012D7F77
:1006500020931401822F817008956111E9CFF5CFA5
:100660001F920F920FB60F9211248F939F93EF93C7
:10067000FF938091B900803901F5E091150181E087
:100680008E0F809315018091BB00F0E0EF5DFE4F6F
:1006900080838091140181608093140185EC8093A4
:1006A000BC0081E080931701FF91EF919F918F91A2
:1006B0000F900FBE0F901F9018958139A8F0883ABF
:1006C00041F510921601E0E080911801E81708F05A
:1006D0005BC081E08E0F80931601F0E0E75EFE4F75
:1006E00080818093BB000EC0803789F58091140112
:1006F00084608093140180911401826080931401BE
:100700001092150185EC8093BC0081E08093170165
:10071000CBCF893A90F0803C39F5909116018091C9
:100720001801981741F18091B9008093130185EC6D
:100730008093BC0010921701B7CF883911F58091D2
:10074000B9008093130180E98093BC00ADCF81375D
:1007500030F0803809F491CF883889F3E4CF8823CA
:1007600071F3803641F2DFCF883C49F3883BD9F6FC
:10077000E0911601A9CF809114018160809314014A
:10078000D6CF803AA1F2CFCF1092BB00BBCFF89466
:02079000FFCF99
:10079200131415161700010203040508090A0B10A9
:0407A200111206F832
:1007A800040000001400000003000000474E55003C
:1007B8003E2B904B19DE681DFC10E39B0ECEF03DDE
:0407C800A33B449873
:00000001FF
