:1000000019C033C032C031C030C02FC02EC02DC087
:100010002CC02BC02AC029C028C027C026C025C09C
:1000200024C023C022C021C020C01FC01EC01DC0CC
:10003000D7C21BC011241FBECFEFD2E0DEBFCDBFA1
:1000400011E0A0E0B1E0EEECF6E002C005900D9208
:10005000A431B107D9F711E0A4E1B1E001C01D92CC
:10006000AA39B107E1F715D230C3CACF81E0809336
:100070001B0110921D0110921C0182E180931E0150
:1000800080EC80931F0180EF80932001109221016A
:10009000E8E8F1E0119281E0EA39F807D9F708952C
:1000A0008FE384B98FE087B98FEF8AB90895E1E8CB
:1000B000F0E080818360808380818860808387E82E
:1000C00093E1909389008093880008954F925F9206
:1000D0006F927F928F929F92AF92BF92CF92DF9258
:1000E000EF92FF920F931F93CF93DF9300D0CDB782
:1000F000DEB7482F50E0FA01E050FF4F80819A01AF
:1001000028573E4F3A832983D901EC902E2D30E0B9
:10011000F901EE0FFF1FE20FF31FEE0FFF1FE45E6A
:10012000FE4FA081B181A617B70799F40F900F90E9
:10013000DF91CF911F910F91FF90EF90DF90CF90C3
:10014000BF90AF909F908F907F906F905F904F90F7
:100150000895883008F05CC0A1E0B0E001C0AA0FAB
:100160008A95EAF76A2EF12C00E082818150828321
:10017000882309F45CC08381862983838481802B52
:10018000848385818F29858380911C0190911D0135
:100190008617970708F49EC020E030E0E12CE0E0ED
:1001A000F0E02F01420E531E440C551C8CE191E0EF
:1001B000480E591ED2018D919C9111978617970771
:1001C00009F0A4C012968C911297882309F49EC05E
:1001D0008F5F12968C931297162D109513968C9113
:1001E0001397812313968C931397009514968C91F3
:1001F0001497802314968C931497F09415968C91F1
:1002000015978F2115968C93E981FA81E0828ECF24
:10021000803108F053C090E00897A1E0B0E001C041
:10022000AA0F8A95EAF70A2FF12C612C9ECF5091E4
:100230001B01515050931B01852F90E0281739075F
:1002400084F5F9013196CF01880F991F8E0F9F1FFA
:10025000880F991F845E9E4FB6E05B9F400111247A
:10026000E2E2F1E08E0E9F1EEAEF1E2F1203600104
:10027000139FD00C112446E0E49E90011124F6E077
:10028000BF2EDC01AC0DBD1DA20FB31F1697FC01E4
:10029000AB2C01900D92AA94E1F70696881599056A
:1002A00081F7E8E8F1E080818E1510F081508083BD
:1002B000319651E0EA39F507B1F766CF90E0409703
:1002C000A1E0B0E001C0AA0F8A95EAF7FA2E00E09B
:1002D000612C4BCF40911B01442309F45DCFE12CED
:1002E000E3942E2D30E0F901EE0FFF1FDF01A20F86
:1002F000B31FAA0FBB1FA45EBE4F8D919C918617A2
:10030000970708F04ECFE412EBCF4BCF90901B0134
:10031000A92DB0E02A173B076CF5CD01880F991F76
:100320008A0F9B1F880F991F845E9E4F2E0F3F1FC1
:10033000220F331F245E3E4FEAEF1E2FAD01140340
:100340006001159FD00C112446E0949E50011124A9
:10035000F6E08F2EFC01EC0DFD1DEA0DFB1D36971E
:10036000DC01782C01900D927A94E1F706978217C0
:10037000930781F7939490921B01E8E8F1E0808164
:100380008E1510F08F5F8083319651E0EA39F507C2
:10039000B1F7D20111967C936E9381E012968C9303
:1003A0001297162D109513961C931397009514967B
:1003B0000C931497F0941596FC9226CF40911B0154
:1003C00080911C0190911D01892B09F051C09091E1
:1003D0001F019F73809120018F7030912101415046
:1003E000E2E2F1E0F89425B1292B25B998B1982BD8
:1003F00098B98BB1832B8BB9209184003091850003
:100400001092850010928400642F6150442321F1E2
:100410003596DF0115978D919C91969587959695C8
:100420008795409184005091850048175907C8F37B
:1004300085B1DF0112979C91892385B988B1DF01CD
:1004400011979C91892388B98BB1908189238BB9AD
:10045000615036966F3FE9F6809184009091850057
:10046000820F931F90938500809384007894089561
:10047000ECE1F1E03FEF8FE09FE3B4CFFC0180813E
:10048000318120E09281B901692B823108F0089511
:100490001DCECF93DF9300D000D0CDB7DEB781E083
:1004A00080931B0110921D0110921C0182E1809328
:1004B0001E0180EC80931F0180EF80932001109239
:1004C0002101E8E8F1E0119281E0EA39F807D9F773
:1004D0008FE384B98FE087B98FEF8AB9809181006B
:1004E0008360809381008091810088608093810087
:1004F00087E893E190938900809388008EE817D075
:1005000045D0789412E01CD081110CC08091140168
:1005100081FF08C064E0CE01019645D0CE0101966E
:10052000ADDF34D0B19BEFCF49DF16BBECCF80936A
:10053000BA008FEF8093BB0084E08093BC000895E5
:100540008091BC00817008958091BC0080FDFCCF3B
:100550008091120108952091BC0020FDFCCF609392
:100560001901DC01E5E1F1E070E06E0F7F1F02C0D0
:100570008D918193E617F707D9F71092140188EF50
:100580008093120185EC8093BC0008958091BC009B
:1005900080FDFCCF1092140188EF8093120185EC4E
:1005A0008093BC0008952091BC0020FDFCCF2091D9
:1005B000140120FF11C0E5E1F1E0DC0170E06E0FF5
:1005C0007F1F02C081918D93E617F707D9F78091BD
:1005D00014018D7F8093140180911401817008951E
:1005E0001F920F920FB60F9211248F939F93EF9348
:1005F000FF938091B900803909F446C0813948F4ED
:100600008037A9F1803809F43FC0803609F051C025
:1006100033C0883A61F0893A20F4803A09F049C041
:1006200046C0883B31F0803C09F043C00FC01092B7
:100630001A0180911A01E82FF0E0EB5EFE4F9081E5
:100640009093BB008F5F80931A012FC090911A0185
:1006500080911901981731F4809114018160809381
:10066000140125C08091B9008093120120C08091AF
:10067000140184608093140180911401826080933E
:10068000140110921A0111C080911A019091BB00BF
:10069000E82FF0E0EB5EFE4F90838F5F80931A01AE
:1006A0008091140181608093140185EC03C084E083
:1006B00001C085ED8093BC00FF91EF919F918F91D8
:0E06C0000F900FBE0F901F901895F894FFCF6B
:1006CE00131415161700010203040508090A0B106E
:0406DE001112F800FD
:00000001FF
